:030000000208BB38
:0C08BB00787FE4F6D8FD7581080208C7BC
:0808C70012085B1208A380F87F
:10085B00759001E4F508AF0812080012088A050824
:10086B00E508C3940A40EF759002E4F508AF08124F
:0E087B00080012088A0508E508C3940A40EF39
:01088900224C
:1008A300759004750801AF0812080012088A05083C
:0708B300E508C3940640EFC5
:0108BA00221B
:04088A007FE87E0382
:10088E00D3EF9400EE9400400B7DFADDFEEF1F7067
:04089E00EF1E80ECDD
:0108A2002233
:10080000EF14B40A00505390081575F003A4C58383
:1008100025F0C5837302083302083702083B02083B
:100820003F02084302084702084B02084F020853E0
:1008300002085775A0062275A05B2275A04F22758D
:10084000A0662275A06D2275A07D2275A007227575
:0B085000A07F2275A06F2275A03F2240
:00000001FF
